:100000000C9415030C943D030C943D030C943D0398
:100010000C943D030C943D030C943D030C943D0360
:100020000C943D030C943D030C943D030C943D0350
:100030000C943D030C943D030C94CE1B0C943D0397
:100040000C943D030C943D030C943D030C943D0330
:100050000C943D030C943D030C943D030C943D0320
:100060000C94D61F0C943D03EF03038002CF0300D2
:10007000C130ED0464031281E803850078CB0539B3
:100080002C003402F70120EA020000C00123C10164
:1000900010C5023E28C701863601483701003A01E3
:1000A00055B1020018B603088227F20100260101AB
:1000B000E00F0F312B0C0E084EF1370710030E091D
:1000C00000E10F000E1403110731C148080F0C3175
:1000D000360F118029800000000000240027002A2C
:1000E00000000000070002010000030406000000F9
:1000F000000000000000000000003E5B4F5B3E3E41
:100100006B4F6B3E1C3E7C3E1C183C7E3C181C57C3
:100110007D571C1C5E7F5E1C00183C1800FFE7C367
:10012000E7FF0018241800FFE7DBE7FF30483A0636
:100130000E2629792926407F050507407F05253FA2
:100140005A3CE73C5A7F3E1C1C08081C1C3E7F148E
:10015000227F22145F5F005F5F06097F017F0066D8
:1001600089956A606060606094A2FFA29408047E32
:10017000040810207E201008082A1C08081C2A08E1
:10018000081E101010100C1E0C1E0C30383E38309B
:10019000060E3E0E06000000000000005F0000009A
:1001A00007000700147F147F14242A7F2A122313C8
:1001B00008646236495620500008070300001C22DC
:1001C00041000041221C002A1C7F1C2A08083E080E
:1001D000080080703000080808080800006060000F
:1001E00020100804023E5149453E00427F40007203
:1001F000494949462141494D331814127F1027457A
:100200004545393C4A494931412111090736494997
:100210004936464949291E000014000000403400B8
:10022000000008142241141414141400412214086C
:1002300002015909063E415D594E7C1211127C7F24
:10024000494949363E414141227F4141413E7F4932
:100250004949417F090909013E414151737F08081D
:10026000087F00417F41002040413F017F08142268
:10027000417F404040407F021C027F7F0408107F86
:100280003E4141413E7F090909063E4151215E7FC1
:1002900009192946264949493203017F01033F4094
:1002A00040403F1F2040201F3F4038403F6314081C
:1002B000146303047804036159494D43007F4141AD
:1002C000410204081020004141417F040201020460
:1002D0004040404040000307080020545478407FCD
:1002E000284444383844444428384444287F385407
:1002F00054541800087E090218A4A49C787F0804AE
:10030000047800447D40002040403D007F10284498
:100310000000417F40007C047804787C0804047865
:100320003844444438FC1824241818242418FC7C2D
:1003300008040408485454542404043F44243C4012
:1003400040207C1C2040201C3C4030403C44281075
:1003500028444C9090907C4464544C4400083641AE
:10036000000000770000004136080002010204028C
:100370003C2623263C1EA1A161123A4040207A3837
:100380005454555921555579412254547842215598
:1003900054784020545579400C1E527212395555EC
:1003A0005559395454545939555454580000457CC2
:1003B000410002457D420001457C407D1211127DC5
:1003C000F0282528F07C545545002054547C547C5A
:1003D0000A097F4932494949323A4444443A324A47
:1003E0004848303A4141217A3A42402078009DA065
:1003F000A07D3D4242423D3D4040403D3C24FF24E3
:1004000024487E4943662B2FFC2F2BFF0929F62019
:10041000C0887E090320545479410000447D413056
:1004200048484A32384040227A007A0A0A727D0DE2
:1004300019317D2629292F28262929292630484D9A
:100440004020380808080808080808382F10C8ACE9
:10045000BA2F102834FA00007B000008142A142256
:1004600022142A14085500550055AA55AA55AAFF6A
:1004700055FF55FF000000FF00101010FF0014147E
:1004800014FF001010FF00FF1010F010F0141414EF
:10049000FC001414F700FF0000FF00FF1414F40424
:1004A000FC141417101F10101F101F1414141F0019
:1004B000101010F0000000001F101010101F10107E
:1004C0001010F010000000FF10101010101010108D
:1004D00010FF10000000FF140000FF00FF00001FCD
:1004E00010170000FC04F414141710171414F4046B
:1004F000F40000FF00F714141414141414F700F798
:10050000141414171410101F101F141414F41410C2
:1005100010F010F000001F101F0000001F1400005A
:1005200000FC140000F010F01010FF10FF14141461
:10053000FF141010101F00000000F010FFFFFFFF5D
:10054000FFF0F0F0F0F0FFFFFF0000000000FFFF01
:100550000F0F0F0F0F3844443844FC4A4A4A347E88
:1005600002020606027E027E026355494163384458
:10057000443C04407E201E2006027E020299A5E72C
:10058000A5991C2A492A1C4C7201724C304A4D4DC7
:10059000303048784830BC625A463D3E49494900AF
:1005A0007E0101017E2A2A2A2A2A44445F444440CB
:1005B000514A444040444A51400000FF0103E0805A
:1005C000FF000008086B6B083612362436060F0948
:1005D0000F06000018180000001010003040FF0146
:1005E00001001F01011E00191D1712003C3C3C3C7C
:1005F00000000000000102040810204080010204F5
:100600000810200102040810200000000025002826
:10061000002B000404040404040404020202020285
:100620000203030303030300D42311241FBECFEFEF
:10063000D8E0DEBFCDBF11E0A0E0B1E0E4EDFCE426
:1006400002C005900D92A436B107D9F724E0A4E6C4
:10065000B1E001C01D92AA3BB207E1F713E0C5E18A
:10066000D3E004C02197FE010E946226C431D10765
:10067000C9F70E947A210C94C5250C9400002F9292
:100680003F924F925F926F927F928F929F92AF9222
:10069000BF92CF92DF92EF92FF920F931F93CF936F
:1006A000DF93CDB7DEB76A970FB6F894DEBF0FBE03
:1006B000CDBFFC018FE39CE90197F1F700C000007A
:1006C0008081882311F40C94F70E10828581838336
:1006D00096819483623059F020F4613069F491502E
:1006E00007C0633039F0643039F4815004C09F5F33
:1006F000968302C08F5F8583FC8BEB8B6783818140
:1007000092810E941621AB89BC8916964C9016974F
:1007100064E1469E802D11244AE0480F15968C9185
:100720001597869F802D11246AE0680F1196ED9130
:10073000FC911297E85CFD4F808191819A8F898F9F
:1007400017968C91823009F46EC508F02CC2813066
:1007500011F00C94EA0E442E512C320199E0690EEE
:10076000711CC62ED12C5601A2E0AA0EB11CA98D77
:10077000BA8DED91FC911197048CF58DE02D3FED34
:10078000E32E33E0F32E04E010E020E130E0A3019B
:10079000B501CD010995B6016F5F7F4FA98DBA8D67
:1007A000ED91FC911197008CF18DE02D0FE510E09B
:1007B00023E030E0A301CD010995F2013C96FA83D4
:1007C000E983A98DBA8DED91FC911197028CF38D7F
:1007D000E02D22E030E049815A81B501CD01099533
:1007E000F6013496FC83EB83A201435F5F4FA98D32
:1007F000BA8DED91FC911197028CF38DE02D2CE0D8
:1008000030E06B817C81CD0109957601B0E1EB0E82
:10081000F11CA98DBA8DED91FC911197028CF38D8D
:10082000E02D22E030E049815A81B701CD010995E0
:100830004201B8E08B0E911CA98DBA8DED91FC910F
:100840001197028CF38DE02D0CE91DE722E030E0DA
:10085000A401B501CD010995A98DBA8DED91FC9149
:100860001197028CF38DE02D22E030E0A401B70156
:10087000CD010995B6016E5E7F4FA98DBA8DED91C0
:10088000FC911197008CF18DE02D23E030E0A30165
:10089000CD0109955201B5E0AB0EB11C4601E5E072
:1008A0008E0E911CA98DBA8DED91FC911197048C3F
:1008B000F58DE02D4FEDE42E43E0F42E04E010E042
:1008C0002AE030E0A501B401CD0109951201B6E09E
:1008D0002B0E311CB601675F7F4FA98DBA8DED914C
:1008E000FC911197048CF58DE02D5FE5E52EF12C40
:1008F00003E010E022E030E0A101CD010995720192
:10090000B7E0EB0EF11CF6013896FE83ED83A98D5E
:10091000BA8DED91FC9111970480F581E02D2FE5C2
:1009200030E0A7016D817E81CD010995B601655F3B
:100930007F4FA98DBA8DED91FC9111970480F581BF
:10094000E02D2FE530E0A701CD010995A98DBA8DE5
:10095000ED91FC9111970480F581E02D2FE530E0B9
:10096000A501B401CD010995A98DBA8DED91FC9138
:1009700011970480F581E02D2FE530E0A301B4014B
:10098000CD010995F6013E96F887EF83A98DBA8DC2
:10099000ED91FC9111970480F581E02D2FE530E079
:1009A000A3016F817885CD010995A98DBA8DED914F
:1009B000FC911197008CF18DE02D0FE510E023E004
:1009C00030E0A1016B817C81CD010995F2013A965D
:1009D000FA87E9877601F6E0EF0EF11CA98DBA8D52
:1009E000ED91FC911197028CF38DE02D28E030E021
:1009F00049855A85B701CD010995A2014C5F5F4F2A
:100A0000A98DBA8DED91FC911197028CF38DE02D9B
:100A10000CE91DE728E030E0B701CD010995A98D6B
:100A2000BA8DED91FC9111970480F581E02D2CE9B0
:100A30003DE7A5016F817885CD0109955601BFE09D
:100A4000AB0EB11CA98DBA8DED91FC911197008C64
:100A5000F18DE02D23E030E0A101B501CD01099534
:100A6000A98DBA8DED91FC911197008CF18DE02D3F
:100A700000E811E622E030E0A3016B817C81CD012A
:100A800009957201BBE0EB0EF11CA98DBA8DED91B9
:100A9000FC911197028CF38DE02D23E030E0A7014B
:100AA000B401CD010995A98DBA8DED91FC911197F5
:100AB000028CF38DE02D24E030E049815A816D8174
:100AC0007E81CD010995BCE0CB0ED11CA98DBA8DDC
:100AD000ED91FC911197028CF38DE02D23E030E035
:100AE000A701B601CD010995A98DBA8DED91FC91B3
:100AF0001197008CF18DE02D22E030E0A301B501CB
:100B0000CD010995A98DBA8DED91FC9111970480C5
:100B1000F581E02D26E233E949855A85B401CD01FE
:100B20000995A98DBA8DED91FC911197028CF38DE9
:100B3000E02D06E213E924E030E0A7016D817E811B
:100B4000CD010995A98DBA8DED91FC911197048085
:100B5000F581E02D26E233E949855A856F81788554
:100B6000CD010995BEE04B0E511CA98DBA8DED91BA
:100B7000FC911197028CF38DE02D00E811E623E043
:100B800030E0A201B401CD010995A98DBA8DED9196
:100B9000FC911197028CF38DE02D23E030E0A2014F
:100BA000B6010C94E80E833009F4F2C5843011F0DC
:100BB0000C94EA0E442E512CF2013496FE83ED8300
:100BC000862E912C6401F8E0CF0ED11CA98DBA8D30
:100BD000ED91FC911197028CF38DE02D08E414EE59
:100BE00022E030E04D815E81B601CD010995F20130
:100BF0003596FA83E9837401F7E0EF0EF11CA98DB5
:100C0000BA8DED91FC911197008CF18DE02D27E0CC
:100C100030E049815A81B701CD0109953201B7E031
:100C20006B0E711CF4013696FC83EB83A98DBA8D93
:100C3000ED91FC911197008CF18DE02D22E030E0D8
:100C4000A3016B817C81CD010995F2013C96F88767
:100C5000EF83A98DBA8DED91FC911197028CF38DE4
:100C6000E02D23E030E04F815885B601CD01099594
:100C7000A98DBA8DED91FC911197028CF38DE02D29
:100C80000CE81DEF22E030E0A301B701CD0109958A
:100C9000F2013A96FC87EB87A98DBA8DED91FC9114
:100CA0001197048CF58DE02D8CE8E82E8DEFF82E51
:100CB00002E010E022E030E04B855C85B601CD011A
:100CC0000995A98DBA8DED91FC9111970480F5815C
:100CD000E02D2FEF3FEF49815A81B601CD010995F3
:100CE000F2013696FA87E987A98DBA8DED91FC91CC
:100CF00011970480F581E02D20E030E049855A8588
:100D0000B601CD010995F2013896F88BEF87A98DD0
:100D1000BA8DED91FC9111970480F581E02D20E0D2
:100D200030E04F855889B601CD010995A201475F92
:100D30005F4FA98DBA8DED91FC9111970480F581DB
:100D4000E02D2FEF3FEFB601CD010995F2013B9663
:100D5000FE87ED875401FAE0AF0EB11CA98DBA8D64
:100D6000ED91FC9111970480F581E02D20E831E6AA
:100D70004D855E85B501CD010995F4013B96FA8B51
:100D8000E98BA98DBA8DED91FC911197028CF38DB1
:100D9000E02D00E811E623E030E04F8158856989B5
:100DA0007A89CD010995A98DBA8DED91FC911197A4
:100DB000048CF58DE02D9FEDE92E93E0F92E07E0F0
:100DC00010E025E030E04D815E81B501CD0109954F
:100DD0001401B9E02B0E311CA98DBA8DED91FC9157
:100DE0001197008CF18DE02D0FE510E025E030E04B
:100DF00049815A81B101CD010995A98DBA8DED9135
:100E0000FC9111970480F581E02D2FE530E04B85B2
:100E10005C85B501CD010995A98DBA8DED91FC9147
:100E20001197028CF38DE02D24E030E04D855E8536
:100E300069897A89CD010995F4013E96FE8BED8B87
:100E4000A98DBA8DED91FC9111970480F581E02D6B
:100E50002FE530E04B855C856D897E89CD01099554
:100E6000F4013F96FC87EB87A98DBA8DED91FC913B
:100E70001197008CF18DE02D24E030E0A3016B850B
:100E80007C85CD0109953401BCE06B0E711CA98DE8
:100E9000BA8DED91FC911197048CF58DE02D2FE525
:100EA000E22EF12C02E010E023E030E049855A8583
:100EB000B301CD0109957401BDE0EB0EF11CA98DC4
:100EC000BA8DED91FC9111970480F581E02D2FE50D
:100ED00030E049815A81B701CD010995A98DBA8DBC
:100EE000ED91FC9111970480F581E02D2FE530E024
:100EF0004F855889B701CD010995A98DBA8DED911E
:100F0000FC9111970480F581E02D2CE93DE74D819E
:100F10005E81B501CD010995F2013396F88BEF871B
:100F2000A98DBA8DED91FC911197028CF38DE02D76
:100F30000CE91DE723E030E04F85588969897A89FB
:100F4000CD010995A98DBA8DED91FC911197048081
:100F5000F581E02D2CE93DE74D815E816D897E892B
:100F6000CD010995A98DBA8DED91FC911197008C59
:100F7000F18DE02D22E030E049815A816B857C853E
:100F8000CD0109955201BDE0AB0EB11CA98DBA8D02
:100F9000ED91FC911197048CF58DE02D3FEDE32E42
:100FA00033E0F32E04E010E023E030E0A501B101CE
:100FB000CD010995A98DBA8DED91FC911197008C09
:100FC000F18DE02D0FE510E024E030E0A501B60141
:100FD000CD010995A201415F5F4FA98DBA8DED91B9
:100FE000FC911197028CF38DE02D23E030E0B101EC
:100FF000CD0109957201B1E1EB0EF11CA98DBA8DFD
:10100000ED91FC911197028CF38DE02D23E030E0FF
:10101000A701B101CD010995A201405F5F4FA98DE4
:10102000BA8DED91FC9111970480F581E02D2FE5AB
:1010300030E0B301CD010995A98DBA8DED91FC91F8
:101040001197008CF18DE02D0CE91DE723E030E0D5
:10105000A501B301CD010995A98DBA8DED91FC9142
:1010600011970480F581E02D28E434EEA701B60144
:10107000CD010995A2014E5E5F4FA98DBA8DED910C
:10108000FC911197028CF38DE02D08E414EE22E020
:1010900030E0B101CD0109957201B2E0EB0EF11C17
:1010A000A98DBA8DED91FC911197028CF38DE02DF5
:1010B0000FED13E023E030E0A701B101CD01099568
:1010C000A98DBA8DED91FC9111970480F581E02DE9
:1010D0002FE530E0A701B601CD010995A98DBA8DA4
:1010E000ED91FC911197028CF38DE02D0FE510E04E
:1010F00023E030E04F855889B601CD010995A20162
:101100004F5F5F4FA98DBA8DED91FC911197028CC5
:10111000F38DE02D0CE91DE723E030E0B101CD01B6
:101120000995A98DBA8DED91FC9111970480F581F7
:10113000E02D2CE93DE7A701B301CD010995A98D6B
:10114000BA8DED91FC9111970480F581E02D20E896
:1011500031E649815A816B817C81CD010995640119
:10116000B5E0CB0ED11CA98DBA8DED91FC911197F4
:10117000008CF18DE02D00E811E622E030E0498599
:101180005A85B601CD010995A98DBA8DED91FC91D5
:1011900011970480F581E02D26E233E949855A85CF
:1011A0006B817C81CD010995A98DBA8DED91FC9162
:1011B00011970480F581E02D20E831E64D855E85AC
:1011C0006B817C81CD010995A98DBA8DED91FC9142
:1011D0001197008CF18DE02D22E030E04F81588591
:1011E000B601CD010995A98DBA8DED91FC911197AC
:1011F000028CF38DE02D22E030E0A5016B817C8133
:10120000CD010995A98DBA8DED91FC911197028CB4
:10121000F38DE02D06E213E922E030E04F8158859E
:101220006B817C81D5C5242E312C3101BAE06B0E47
:10123000711CC62ED12CF6013596FA83E983A98D4F
:10124000BA8DED91FC911197048CF58DE02D18E489
:10125000E12E14EEF12E03E010E02AE030E0A301CD
:1012600069817A81CD010995F1013D96FC83EB837B
:101270005601F9E0AF0EB11CA98DBA8DED91FC912C
:101280001197028CF38DE02D08E414EE22E030E09B
:101290004B815C81B501CD0109952101BBE04B0E6D
:1012A000511CF6013696FE83ED83A98DBA8DED9122
:1012B000FC911197028CF38DE02D0CE81DEF28E0D6
:1012C00030E0A2016D817E81CD010995F1013C964E
:1012D000F887EF83A98DBA8DED91FC911197028C5F
:1012E000F38DE02D22E030E04F815885B501CD012E
:1012F0000995B601695F7F4FA98DBA8DED91FC917B
:1013000011970480F581E02D2FEF3FEFA201CD0171
:101310000995F6013896FA87E987A98DBA8DED917E
:10132000FC9111970480F581E02D20E030E0A201CE
:1013300069857A85CD010995F6013B96FC87EB8797
:10134000A98DBA8DED91FC9111970480F581E02D66
:1013500020E030E0A2016B857C85CD010995F60186
:101360003C96FE87ED87A98DBA8DED91FC91119782
:101370000480F581E02D2FEF3FEFA2016D857E8582
:10138000CD0109954101B5E08B0E911CA98DBA8D57
:10139000ED91FC911197048CF58DE02D0FEDE02E71
:1013A00003E0F02E05E010E02AE030E0A4016981BE
:1013B0007A81CD010995A1014C5F5F4FA98DBA8D4E
:1013C000ED91FC911197028CF38DE02D0CE91DE756
:1013D00028E030E06D817E81CD010995A98DBA8D1F
:1013E000ED91FC911197028CF38DE02D0FE510E04B
:1013F00028E030E0A3016D817E81CD010995A98DA2
:10140000BA8DED91FC911197028CF38DE02D28E0BF
:1014100030E0A3016D817E81CD010995A98DBA8D42
:10142000ED91FC911197048CF58DE02D8FE5E82E60
:10143000F12C03E010E022E030E0A401B501CD0181
:1014400009955101B6E0AB0EB11CA98DBA8DED9195
:10145000FC9111970480F581E02D2FE530E0A50186
:1014600069857A85CD010995A98DBA8DED91FC919B
:1014700011970480F581E02D2FE530E0A5016B8503
:101480007C85CD010995A98DBA8DED91FC911197BF
:101490000480F581E02D2FE530E0A40169817A8197
:1014A000CD0109953601BEE06B0E711CA98DBA8D78
:1014B000ED91FC9111970480F581E02D2CE93DE739
:1014C000A401B301CD0109957101B9E0EB0EF11C46
:1014D000A98DBA8DED91FC9111970480F581E02DD5
:1014E0002FE530E0A70169817A81CD010995A98DA9
:1014F000BA8DED91FC9111970480F581E02D2FE5D7
:1015000030E0A701B301CD0109954601B4E08B0E8F
:10151000911CA98DBA8DED91FC911197008CF18DE4
:10152000E02D0FE510E026E030E0A501B401CD018B
:101530000995A98DBA8DED91FC911197008CF18DD3
:10154000E02D0CE91DE722E030E0A701B401CD0158
:1015500009954601BFE08B0E911CA98DBA8DED91C6
:10156000FC911197008CF18DE02D23E030E0A50176
:10157000B401CD010995A98DBA8DED91FC9111971A
:10158000008CF18DE02D0FE510E023E030E0A701A5
:10159000B401CD0109957101B7E0EB0EF11C4601D4
:1015A000E2E08E0E911CA98DBA8DED91FC91119700
:1015B000028CF38DE02D0CE91DE722E030E0A7015D
:1015C000B401CD010995A98DBA8DED91FC911197CA
:1015D000028CF38DE02D0FE510E022E030E0A20157
:1015E000B401CD0109955601B0E1AB0EB11CA98D36
:1015F000BA8DED91FC911197028CF38DE02D0CE9E1
:101600001DE722E030E0A701B501CD010995A98DC4
:10161000BA8DED91FC911197028CF38DE02D0FE5C1
:1016200010E022E030E0A201B501CD0109952101D1
:10163000B8E04B0E511CA98DBA8DED91FC9111971C
:10164000048CF58DE02D9FEDE92E93E0F92E03E05B
:1016500010E022E030E0A201B401CD010995A98D8E
:10166000BA8DED91FC911197048CF58DE02D22E05F
:1016700030E0A201B501CD010995B6016F5F7F4F42
:10168000A98DBA8DED91FC911197008CF18DE02D13
:101690000FE510E023E030E0A201CD010995B6018D
:1016A0006E5E7F4FA98DBA8DED91FC911197008CE4
:1016B000F18DE02D0CE91DE723E030E0A201CD0122
:1016C0000995A98DBA8DED91FC911197048CF58D3A
:1016D000E02D20E8E22E21E6F22E02E010E023E0E9
:1016E00030E04B815C8169817A81CD010995A98DBA
:1016F000BA8DED91FC911197048CF58DE02D23E0CE
:1017000030E04B815C816D857E85CD010995A98D89
:10171000BA8DED91FC9111970480F581E02D20E8C0
:1017200031E64F81588569817A81CD010995A98D6E
:10173000BA8DED91FC9111970480F581E02D20E8A0
:1017400031E64B815C81B301CD010995A98DBA8D3C
:10175000ED91FC9111970480F581E02D26E233E9AB
:101760004B815C816D817E81CD010995B601635FFE
:101770007F4FA98DBA8DED91FC9111970480F58171
:10178000E02D26E233E94B815C81CD01099522C32E
:10179000442E512CF2013496FE83ED83262E312CFB
:1017A000C1010A9698878F83A98DBA8DED91FC911E
:1017B0001197028CF38DE02D08E414EE22E030E066
:1017C0004D815E81BC01CD010995F2013596FA8308
:1017D000E983C1010C969A878987A98DBA8DED910D
:1017E000FC911197008CF18DE02D22E030E04981D1
:1017F0005A81BC01CD010995F2013796F88BEF872C
:10180000C1010D969C878B87A98DBA8DED91FC91B6
:101810001197008CF18DE02D22E030E04F85588942
:10182000BC01CD010995F2013896FE8BED8BA98D97
:10183000BA8DED91FC911197008CF18DE02D24E093
:1018400030E04D895E8969857A85CD010995F2017F
:101850003C96FE87ED87C10109969C838B83A98DF9
:10186000BA8DED91FC911197028CF38DE02D23E060
:1018700030E04D855E85BC01CD0109953101BBE0AD
:101880006B0E711CA98DBA8DED91FC911197028C94
:10189000F38DE02D0CE81DEF22E030E04F855889F4
:1018A000B301CD0109954201BAE08B0E911CA98DBF
:1018B000BA8DED91FC911197048CF58DE02D4CE8DB
:1018C000E42E4DEFF42E02E010E022E030E0A4011F
:1018D0006F817885CD010995A98DBA8DED91FC9127
:1018E00011970480F581E02D2FEF3FEF49815A8158
:1018F000B301CD010995F2013696FA8BE98BA98DDA
:10190000BA8DED91FC9111970480F581E02D20E0D6
:1019100030E049895A89B301CD010995A98DBA8D65
:10192000ED91FC9111970480F581E02D20E030E0ED
:101930004D895E89B301CD010995A201475F5F4FD3
:10194000A98DBA8DED91FC9111970480F581E02D60
:101950002FEF3FEFB301CD010995F2013B96F88FD0
:10196000EF8BA98DBA8DED91FC9111970480F581D3
:10197000E02D20E831E64F89588D6B817C81CD01C7
:1019800009956101B6E0CB0ED11CA98DBA8DED9100
:10199000FC911197028CF38DE02D00E811E623E015
:1019A00030E04D855E85B601CD0109955101B5E068
:1019B000AB0EB11CA98DBA8DED91FC911197048CE1
:1019C000F58DE02D5FEDE52E53E0F52E07E010E0FC
:1019D00025E030E04D815E81B501CD010995B10171
:1019E0006C5F7F4FA98DBA8DED91FC911197008CA2
:1019F000F18DE02D0FE510E026E030E049815A81BD
:101A0000CD010995A98DBA8DED91FC911197008CAE
:101A1000F18DE02D22E030E0A401B501CD01099562
:101A2000A98DBA8DED91FC911197028CF38DE02D6B
:101A300023E030E04F89588DB601CD010995A98D7D
:101A4000BA8DED91FC9111970480F581E02D2FE581
:101A500030E0A4016B817C81CD010995A98DBA8DFF
:101A6000ED91FC911197008CF18DE02D23E030E099
:101A70004F8558896F817885CD010995A98DBA8DDB
:101A8000ED91FC911197048CF58DE02D6FE5E62E1C
:101A9000F12C02E010E023E030E049895A89B501D9
:101AA000CD010995A98DBA8DED91FC911197048016
:101AB000F581E02D2FE530E049815A81B601CD0155
:101AC0000995A98DBA8DED91FC9111970480F5814E
:101AD000E02D2FE530E04D895E89B601CD010995F5
:101AE000A98DBA8DED91FC9111970480F581E02DBF
:101AF0002CE93DE74D815E81B501CD01099542019B
:101B0000B3E08B0E911CA98DBA8DED91FC911197CC
:101B1000028CF38DE02D0CE91DE723E030E0A401F9
:101B2000B601CD010995A98DBA8DED91FC91119762
:101B30000480F581E02D2CE93DE74D815E816B81CC
:101B40007C81CD010995A98DBA8DED91FC911197FC
:101B5000008CF18DE02D22E030E049815A816F81C7
:101B60007885CD0109957201B2E0EB0EF11C61019F
:101B7000E8E0CE0ED11CA98DBA8DED91FC911197A4
:101B8000028CF38DE02D0FED13E023E030E0A70190
:101B9000B601CD0109955101B7E0AB0EB11CA98D7D
:101BA000BA8DED91FC9111970480F581E02D2FE520
:101BB00030E0A701B501CD010995A98DBA8DED9150
:101BC000FC911197028CF38DE02D0FE510E022E0DF
:101BD00030E0A4016B817C81CD010995A2014F5FAA
:101BE0005F4FA98DBA8DED91FC911197028CF38D09
:101BF000E02D0CE91DE723E030E0B601CD010995A9
:101C0000A98DBA8DED91FC911197008CF18DE02D8D
:101C100022E030E0A701B301CD0109954201BDE00A
:101C20008B0E911CA98DBA8DED91FC911197048CAE
:101C3000F58DE02D7FEDE72E73E0F72E04E010E048
:101C400023E030E0A401B601CD010995A98DBA8D3C
:101C5000ED91FC911197008CF18DE02D0FE510E0D6
:101C600024E030E0A401B501CD010995A2014F5E49
:101C70005F4FA98DBA8DED91FC911197028CF38D78
:101C8000E02D23E030E0B601CD010995A201415FCE
:101C90005F4FA98DBA8DED91FC911197028CF38D58
:101CA000E02D23E030E0B601CD010995A201405FAF
:101CB0005F4FA98DBA8DED91FC9111970480F5814C
:101CC000E02D2FE530E0B301CD010995A98DBA8D46
:101CD000ED91FC911197008CF18DE02D0CE91DE741
:101CE00023E030E0A401B301CD010995A98DBA8D9F
:101CF000ED91FC9111970480F581E02D20E831E60B
:101D000049815A816B857C85CD010995BEE02B0EFA
:101D1000311CA98DBA8DED91FC911197008CF18D3C
:101D2000E02D00E811E622E030E049895A89B1014E
:101D3000CD010995A98DBA8DED91FC911197048083
:101D4000F581E02D26E233E949895A896B857C8546
:101D5000CD010995A98DBA8DED91FC911197048063
:101D6000F581E02D20E831E64F89588D6B857C8523
:101D7000CD010995A98DBA8DED91FC911197008C3B
:101D8000F18DE02D22E030E04D855E85B101CD0181
:101D90000995A98DBA8DED91FC911197028CF38D67
:101DA000E02D22E030E0A40169857A85CD01099516
:101DB000A98DBA8DED91FC911197028CF38DE02DD8
:101DC00006E213E922E030E04D855E8569857A857B
:101DD000CD010995BFEFE5EAFEE0B150E040F040EB
:101DE000E1F700C0000081E0AB89BC898C936A9662
:101DF0000FB6F894DEBF0FBECDBFDF91CF911F911C
:101E00000F91FF90EF90DF90CF90BF90AF909F9099
:101E10008F907F906F905F904F903F902F9008959C
:101E2000AF92BF92CF92DF92EF92FF920F931F93E8
:101E3000CF93DF93EB01A22EB12CC42ED12CE881DD
:101E4000F981048CF58DE02D84E1E82E85EAF82EE9
:101E500004E110E024E130E0A501B601CE010995CE
:101E6000E881F981028CF38DE02D0CE117EE24E17D
:101E700030E0A501B601CE010995B6016D5E7F4F38
:101E8000E881F981008CF18DE02D22E130E0A5019F
:101E9000CE010995A5014B5F5F4FE881F981028C66
:101EA000F38DE02D08E012E424E130E0B601CE012C
:101EB0000995A5014A5F5F4FE881F981028CF38D96
:101EC000E02D0CE117EE24E130E0B601CE010995DA
:101ED000A501445F5F4FE881F981028CF38DE02D0D
:101EE00008E012E424E130E0B601CE010995750165
:101EF0008DE0E80EF11CE881F981028CF38DE02D74
:101F00000CE117EE24E130E0A701B601CE010995FE
:101F1000B6016A5F7F4FE881F981008CF18DE02D79
:101F200025E030E0A501CE010995B601695F7F4F3C
:101F3000E881F981008CF18DE02D08E012E425E0C4
:101F400030E0A501CE010995B601655F7F4FE881BC
:101F5000F981008CF18DE02D0CE117EE26E030E0E8
:101F6000A701CE010995B601645F7F4FE881F98131
:101F7000008CF18DE02D08E012E426E030E0A701AE
:101F8000CE010995A5014D5E5F4FE881F981028C74
:101F9000F38DE02D24E130E0B601CE010995E88112
:101FA000F981008CF18DE02D24E130E0A501B6012E
:101FB000CE010995DF91CF911F910F91FF90EF9086
:101FC000DF90CF90BF90AF90089508950895089541
:101FD000FC016370668B8481958126813781613035
:101FE00039F0633029F091878087338722870895FD
:101FF000318720879387828708956F927F928F928F
:102000009F92AF92BF92CF92DF92EF92FF920F9387
:102010001F93CF93DF93EC014B015A016901380103
:10202000E881F9810680F781E02D0995E881F98141
:102030000684F785E02D87019601A501B401CE0144
:102040000995A501460D571D41505109E881F981B7
:102050000684F785E02D9601B401CE010995E8814B
:10206000F9810484F585E02D9301A501B401CE0129
:102070000995C80CD91CB60161507109E881F98134
:102080000484F585E02D9301A501CE010995E88131
:10209000F9810288F389E02DCE01DF91CF911F9164
:1020A0000F91FF90EF90DF90CF90BF90AF909F90F7
:1020B0008F907F906F9009948F929F92AF92BF9272
:1020C000CF92DF92EF92FF920F931F93CF93DF9304
:1020D0004C016B015A01E901DC01ED91FC916217A1
:1020E000730781F40417150724F48B2D5801042F6E
:1020F000182F0A191B0998012F5F3F4F008CF18D93
:10210000E02D12C04017510709F52617370724F4B0
:102110008D2D6901C62FD82F9E012C193D092F5FE7
:102120003F4F028CF38DE02D8701A501B601C4015C
:102130000995DF91CF911F910F91FF90EF90DF9064
:10214000CF90BF90AF909F908F9008950680F781B9
:10215000E02D0995D401ED91FC910088F189E02DE5
:102160009E01A501B601C4010995D401ED91FC9130
:102170000288F389E02DC401DF91CF911F910F9167
:10218000FF90EF90DF90CF90BF90AF909F908F9097
:102190000994EF92FF920F931F93DC011A960D9111
:1021A0001C911B9718962D913C911997ED91FC91DC
:1021B000048CF58DE02D7B0140E050E060E070E0A4
:1021C00009951F910F91FF90EF9008954F925F92A4
:1021D0006F927F928F929F92AF92BF92CF92DF9237
:1021E000EF92FF920F931F93CF93DF936C012B011C
:1021F0005A0139014801DC01ED91FC910680F7811B
:10220000E02D0995E201640C751CD601ED91FC915D
:10221000C615D7055CF40484F585E02D870194018B
:10222000A501BE01C60109952196EFCF0288F38969
:10223000E02DC601DF91CF911F910F91FF90EF909C
:10224000DF90CF90BF90AF909F908F907F906F90D6
:102250005F904F9009948F929F92AF92BF92CF92CE
:10226000DF92EF92FF920F931F93CF93DF93EC01D6
:102270005B014A016901E881F9810680F781E02D5F
:10228000099595012C0D3D1D21503109E881F981F9
:102290000088F189E02D78018401A401B501CE0107
:1022A0000995E881F9810288F389E02DCE01DF915B
:1022B000CF911F910F91FF90EF90DF90CF90BF9043
:1022C000AF909F908F9009948F929F92AF92BF9200
:1022D000CF92DF92EF92FF920F931F93CF93DF93F2
:1022E000EC015B014A0169017801E881F98106800E
:1022F000F781E02D0995C80CD91C86010150110900
:10230000E881F9810088F189E02D9501A401B501EA
:10231000CE010995E881F9810288F389E02DCE018B
:10232000DF91CF911F910F91FF90EF90DF90CF90B1
:10233000BF90AF909F908F900994EF92FF920F9370
:102340001F93DC01ED91FC91048CF58DE02D099536
:102350001F910F91FF90EF9008950F931F93DC0151
:10236000ED91FC91028CF38DE02D09951F910F9159
:1023700008950F931F93DC01ED91FC91008CF18D7A
:10238000E02D09951F910F910895DC01ED91FC91CD
:102390000480F581E02D09942F923F924F925F9235
:1023A0006F927F928F929F92AF92BF92CF92DF9265
:1023B000EF92FF920F931F93CF93DF9300D000D043
:1023C00000D0CDB7DEB72C017E836D836A01590141
:1023D000C801FC82EB824801841A950A97FE03C06B
:1023E00091948194910835012D813E81621A730A7E
:1023F00077FE03C0719461947108681479045CF4E9
:102400003A2D2B2D5C01832F922F3D812E81DE8270
:10241000CD82C32ED22EAD81BE81AA16BB065CF43E
:102420003C2D2D2D6C01832F922F3D812E81BE825C
:10243000AD82A32EB22E85012D813E81021B130B8E
:102440001C012C183D0837FE03C03194219431083B
:10245000780117FF03C03FEFE31AF30AF594E794FE
:10246000C816D9062CF08FEF9FEF9A83898304C09A
:10247000A1E0B0E0BA83A9832D813E81A216B30604
:1024800024F1D201ED91FC910084F185E02D2B81A6
:102490003C816814790424F44D815E81B60103C047
:1024A000A6016D817E81C2010995E218F308F7FE4D
:1024B00006C029813A81C20ED31EE00EF11E8D8125
:1024C0009E8101969E838D83D7CF26960FB6F89472
:1024D000DEBF0FBECDBFDF91CF911F910F91FF9057
:1024E000EF90DF90CF90BF90AF909F908F907F90B4
:1024F0006F905F904F903F902F900895FC0187A9B7
:1025000087FD06C0A38DB48D9C9181A9892B8C93E6
:102510000895CF93DF931F92CDB7DEB7FC016370B0
:10252000668B623041F0633079F0613011F088E4FD
:1025300003C088E20AC088E8898380EF90E0918731
:10254000808780E491E008C088EE898380E491E090
:102550009187808780EF90E09387828721E0AE01AA
:102560004F5F5F4F66E3CF010E94E81C0F90DF9141
:10257000CF9108958F929F92AF92CF92EF92FF9258
:102580000F931F93CF93DF93EC01262F898D9A8DA4
:10259000009709F042C06A3059F41D861C862D89C7
:1025A0008E859F8538E0239F800D911D112443C0A7
:1025B0006D3009F4AAC08F898823C9F03C898C85C5
:1025C0009D8546E0349F800D911D112448855985D5
:1025D0004817590764F41D861C863D898E859F85A2
:1025E00048E0349F800D911D11249F878E87EA88D3
:1025F000FB88088919894E855F856C857D85AD8846
:10260000CC88CE010E94451D2C898C859D8536E0A5
:10261000239F800D911D11243EC06A3079F41D86E0
:102620001C862D89FC013696E4918E859F852E9F10
:10263000800D911D11249F878E8767C06D3009F42E
:1026400064C0FC0134963491631708F45EC031967F
:10265000E491E61708F459C0462F431B342FFC01C0
:1026600032968590949047E0349F800C911C112401
:10267000F401329634913196E491332311F0E11153
:102680000DC0F4013496E4912C898C859D85E29FE0
:10269000800D911D11249D878C8737C0F4013596DC
:1026A00044915F89552319F15C89E32FF0E0E40F31
:1026B000F11D47FDFA955E9FB0015F9F700D1124DB
:1026C0004C855D85460F571F6885798564177507AA
:1026D00074F41D861C863D89FC013696E4918E8536
:1026E0009F853E9F800D911D11249F878E87EA88CC
:1026F000FB88088919894E855F856C857D85AD8845
:10270000CC88CE010E94451DBCCF81E090E0DF91D6
:10271000CF911F910F91FF90EF90CF90AF909F902E
:102720008F9008958F929F92AF92BF92CF92DF9237
:10273000EF92FF920F931F93CF93DF935C014B01B6
:102740006A01E90177FD53C0DC0118968D919C91D7
:102750001997681779070CF04AC0209709F447C009
:1027600037FF07C0C9010196C80ED91ED195C19582
:10277000D109F50182859385C816D906C4F5A6014D
:102780004C0F5D1F9A012150310937FD30C0D7FE33
:1027900003C0EA01C12CD12C281739071CF0EC0129
:1027A000CC19DD09D501ED91FC910680F781E02D72
:1027B000C501099578018E0121E030E0A601B40140
:1027C000C5010E940D1CD501ED91FC910288F38991
:1027D000E02DC501DF91CF911F910F91FF90EF90F8
:1027E000DF90CF90BF90AF909F908F900994DF9132
:1027F000CF911F910F91FF90EF90DF90CF90BF90FE
:10280000AF909F908F9008958F929F92AF92BF92BA
:10281000CF92DF92EF92FF920F931F93CF93DF93AC
:102820005C016B014A01E90157FD53C0DC011A96B6
:102830008D919C911B97481759070CF04AC020971F
:1028400009F447C037FF07C0C9010196C80ED91E59
:10285000D195C195D109F50180859185C816D90614
:10286000C4F5A6014C0F5D1F9A012150310937FDB7
:1028700030C0D7FE03C0EA01C12CD12C281739077C
:102880001CF0EC01CC19DD09D501ED91FC9106801D
:10289000F781E02DC5010995780101E010E09E0166
:1028A000A401B601C5010E940D1CD501ED91FC915A
:1028B0000288F389E02DC501DF91CF911F910F911F
:1028C000FF90EF90DF90CF90BF90AF909F908F9050
:1028D0000994DF91CF911F910F91FF90EF90DF90BE
:1028E000CF90BF90AF909F908F9008958F929F92BE
:1028F000AF92BF92CF92DF92EF92FF920F931F930E
:10290000CF93DF934C016B015A01E901209709F441
:102910006CC00115110509F468C037FF07C0C90173
:102920000196C80ED91ED195C195D109F401A08593
:10293000B185CA16DB060CF058C017FF07C0C801E6
:102940000196A80EB91E119501951109F401828511
:102950009385A816B9060CF048C0F601EC0FFD1FD0
:10296000AF014150510957FD40C0B501600F711FC3
:102970009B012150310937FD38C0D7FE03C0EF015C
:10298000C12CD12CB7FE03C08B01A12CB12C4A174E
:102990005B071CF0ED01CC19DD09281739071CF085
:1029A0008C010A191B09D401ED91FC910680F78175
:1029B000E02DC40109959E01A501B601C4010E9444
:1029C0000D1CD401ED91FC910288F389E02DC40126
:1029D000DF91CF911F910F91FF90EF90DF90CF90FB
:1029E000BF90AF909F908F900994DF91CF911F91EE
:1029F0000F91FF90EF90DF90CF90BF90AF909F909E
:102A00008F900895EF92FF920F931F93CF93DF93D0
:102A100077FD34C0DC011896ED91FC9119976E1783
:102A20007F0764F52115310549F137FF07C0F9012A
:102A300031964E0F5F1F319521953109DC011A96B1
:102A4000ED91FC911B974E175F07C4F4EA01C20F8A
:102A5000D31FDE011197B7FD11C057FF03C09E01C0
:102A600040E050E0AE17BF071CF09F01241B350B60
:102A70007801890121E030E00E940D1CDF91CF91A7
:102A80001F910F91FF90EF900895EF92FF920F9397
:102A90001F93CF93DF9357FD33C0DC011A96ED915E
:102AA000FC911B974E175F075CF52115310541F12D
:102AB00037FF07C0F90131966E0F7F1F31952195C1
:102AC0003109DC011896ED91FC9119976E177F077B
:102AD000BCF4EB01C20FD31FDE011197B7FD10C08C
:102AE00077FF03C09E0160E070E0AE17BF071CF0E7
:102AF0009F01261B370B780101E010E00E940D1C9E
:102B0000DF91CF911F910F91FF90EF9008958F92D9
:102B10009F92AF92BF92CF92DF92EF92FF920F936C
:102B20001F93CF93DF9347012115310509F44DC061
:102B30000115110509F449C037FF07C0F9013196A5
:102B40006E0F7F1F319521953109DC011896AD90EC
:102B5000BC9019976A157B05C4F517FF07C0F801EB
:102B600031964E0F5F1F119501951109DC011A96E0
:102B7000ED91FC911B974E175F073CF56B01C20E60
:102B8000D31EE6012197D7FD20C07A01E00EF11E89
:102B9000D7011197B7FD19C077FF03C0960160E018
:102BA00070E057FF03C0870140E050E0CA15DB0525
:102BB0001CF09501261B370BAE17BF071CF08F01C9
:102BC000041B150B74010E940D1CDF91CF911F9106
:102BD0000F91FF90EF90DF90CF90BF90AF909F90BC
:102BE0008F900895FC01A5A1B6A19C9182A589238F
:102BF0008C93A5A1B6A19C9181A5892B8C93089556
:102C00000F931F93CF93DF93EC018B018DA981115B
:102C100009C01EBD0DB407FEFDCF0EBD0DB407FEED
:102C2000FDCF2FC08130E9F480E1E9A1FAA1208134
:102C300017FF03C09DA1922B02C09EA192239083F7
:102C4000EBA1FCA120819FA1922B9083EBA1FCA181
:102C5000208198A592239083000F111F815029F79E
:102C600010C0EF8DF8A11083CE010E94F215EF8DF8
:102C7000F8A10083CE01DF91CF911F910F910C94A9
:102C8000F215DF91CF911F910F910895AF92BF92EE
:102C9000CF92DF92EF92FF920F931F93CF93DF9328
:102CA000EC015B016A01215031097901E60EF71E42
:102CB00001501109040F151F6AE20E94301DB50171
:102CC000CE010E940016B701CE010E9400166BE2F1
:102CD000CE010E94301DB601CE010E940016B8013F
:102CE000CE010E9400166CE2CE01DF91CF911F91C0
:102CF0000F91FF90EF90DF90CF90BF90AF900C942A
:102D0000301DAF92BF92CF92DF92EF92FF920F935E
:102D10001F93CF93DF93EC0177FD38C088859985A9
:102D2000681779079CF557FD31C08A859B85481740
:102D3000590764F569017A015B01E881F981068030
:102D4000F781E02DCE010995E881F98106A0F7A170
:102D5000E02D01E010E021E030E0A701B501CE0157
:102D60000995B601CE010E940016E881F98102881A
:102D7000F389E02DCE01DF91CF911F910F91FF904C
:102D8000EF90DF90CF90BF90AF900994DF91CF91FB
:102D90001F910F91FF90EF90DF90CF90BF90AF9079
:102DA0000895EF92FF920F931F93CF93DF93EC015F
:102DB00077FD22C08885998568177907ECF457FD5F
:102DC0001BC08A859B8548175907B4F47901E881AF
:102DD000F98106A0F7A1E02D01E010E021E030E04C
:102DE000CE010995B701CE01DF91CF911F910F91CF
:102DF000FF90EF900C940016DF91CF911F910F91EF
:102E0000FF90EF900895FC0185A981110FC09CB53A
:102E10009C7F9CBD9DB591609DBD9CB59F7D9CBDDB
:102E20002CB5237F95A1822F892B8CBD0895BF924D
:102E3000CF92DF92EF92FF920F931F93CF93DF9386
:102E4000EC016A017B01452B462B472B31F4C12C49
:102E500022E1D22E2AE7E22EF12C8FA987FD07C0AE
:102E600061E00E94921B61E08FA90E94451B61E016
:102E700088AD0E94921B61E088AD0E94451B8DA920
:102E800081111DC0C9A2DAA2EBA2FCA21DA21EA242
:102E90001FA218A661E08AE00E94451B61E08AE05B
:102EA0000E94921B8CB580618CBD8CB580648CBDFA
:102EB00061E08DE00E94921B61E08BE016C08130E2
:102EC000B9F461E08AA50E94921B60E08AA50E9485
:102ED000451B61E08CA50E94921B60E08CA50E94BE
:102EE000451B8BA587FD36C060E00E94921B32C057
:102EF00003E116E0F12CF8018491E82FF0E0EE0FE9
:102F0000FF1FE75FF94F859194912F8D38A1281706
:102F1000390741F461E08F2D0E94921B60E08F2DF4
:102F20000E94451BF3940F5F1F4FF4E1FF12E3CFA4
:102F300061E08EA50E94921B61E08EA50E94451B58
:102F40008FA587FD07C061E00E94921B61E08FA5FD
:102F50000E94451B8EA987FD2AC061E00E94921B3A
:102F600061E08EA90E94451B2FEF81EE94E0215075
:102F700080409040E1F700C0000060E08EA90E9410
:102F8000451BEFEFF1EE24E0E150F0402040E1F787
:102F900000C0000061E08EA90E94451B8FEF93ECFA
:102FA000E9E081509040E040E1F700C000008EA9C8
:102FB00087FF10C020E040E050E061E0CE010E94B9
:102FC000E81CFFEF22E587E0F15020408040E1F768
:102FD00000C0000088E6E82E80E0F82EC7010196C8
:102FE000F7011491112309F44BC0FC01B4900B2D8F
:102FF0000F77CE010E9403178FA987FD06C0EB8DC6
:10300000FC8D90818AA989238083ED8DFE8D90812E
:103010008CA989238083612FCE010E94BB1CED8D7A
:10302000FE8D90818BA9892B8083C12CD12C10E03F
:10303000C016D10664F4F6013296EE0DFF1D6491C0
:10304000CE010E94BB1CFFEFCF1ADF0AF1CF8FA980
:1030500087FD06C0EB8DFC8D908189A9892B80832B
:103060000E5F1F4FE00EF11EB7FEB8CF2FEF82E5C7
:1030700097E0215080409040E1F700C00000AECFC3
:1030800080EF90E09987888780E491E09B878A872A
:10309000DF91CF911F910F91FF90EF90DF90CF9034
:1030A000BF900895CF93DF93EC010E9403178FA97F
:1030B00087FD06C0EB8DFC8D90818AA989238083D2
:1030C000DF91CF91089580918A0190E020918B014A
:1030D000821B91090895CF92DF92EF92FF920F9396
:1030E0001F93CF93DF936C01EB017B01E40EF51E80
:1030F00000E010E0CE15DF0561F06991D601ED9199
:10310000FC910190F081E02DC6010995080F191F6F
:10311000F1CFC801DF91CF911F910F91FF90EF90F8
:10312000DF90CF9008950895EF92FF920F931F9331
:10313000CB01642F422F50E070E0DC01ED91FC9157
:10314000048CF58DE02D20E2E22E2DE4F22E04E138
:1031500010E024E130E009951F910F91FF90EF906E
:103160000895AF92BF92CF92DF92EF92FF920F93AA
:103170001F93CF93DF93EB01FC018381813009F42E
:1031800071C0D0F1823009F0D6C0C22ED12CA42E4D
:10319000B12CB5016D5F7F4FE881F981048CF58D0D
:1031A000E02D8FE5E82EF12C04E110E02EE030E078
:1031B000A601CE010995B5016C5F7F4FE881F981C9
:1031C000048CF58DE02D9FEDE92E93E0F92E2CE097
:1031D00030E0A601CE010995B5016A5F7F4FE88115
:1031E000F981048CF58DE02D2CE9E22E2DE7F22EED
:1031F00028E030E0A6019DC0C22ED12CA42EB12C17
:10320000A6014D5F5F4FE881F981048CF58DE02DBB
:103210006FE5E62EF12C0EE010E024E130E0B50180
:10322000CE010995A6014C5F5F4FE881F981048CBE
:10323000F58DE02D7FEDE72E73E0F72E0CE010E02A
:1032400024E130E0B501CE010995A6014A5F5F4F48
:10325000E881F981048CF58DE02DACE9EA2EADE72B
:10326000FA2E62C0C22ED12CA42EB12CB5016D5FF6
:103270007F4FE881F981048CF58DE02D3FE5E32E49
:10328000F12C04E110E02EE030E0A601CE0109951A
:10329000A6014D5F5F4FE881F981048CF58DE02D2B
:1032A0000EE010E024E130E0B501CE010995B50152
:1032B0006C5F7F4FE881F981048CF58DE02D4FED37
:1032C000E42E43E0F42E04E110E02CE030E0A6010F
:1032D000CE010995A6014C5F5F4FE881F981048C0E
:1032E000F58DE02D0CE010E024E130E0B501CE01D9
:1032F0000995B5016A5F7F4FE881F981048CF58DEE
:10330000E02D5CE9E52E5DE7F52E04E110E028E014
:1033100030E0A601CE010995A6014A5F5F4FE88122
:10332000F981048CF58DE02D08E010E024E130E017
:10333000B501CE010995DF91CF911F910F91FF90BB
:10334000EF90DF90CF90BF90AF9008958F929F92B3
:10335000AF92BF92CF92DF92EF92FF920F931F93A3
:10336000CF93DF93EB01C22ED12CA42EB12CE88198
:10337000F981048CF58DE02DE12C8AE9F82E04E129
:1033800010E024E130E0A601B501CE010995A601C7
:103390004E5E5F4FE881F981028CF38DE02D00E0F5
:1033A00019E324E130E0B501CE010995B5016D5E68
:1033B0007F4FE881F981008CF18DE02D00E01CED5C
:1033C00022E130E0A601CE010995A6014C5F5F4FD6
:1033D000E881F981028CF38DE02D00E019E324E10E
:1033E00030E0B501CE010995A6014B5F5F4FE88142
:1033F000F981028CF38DE02D00E01CED24E130E03A
:10340000B501CE010995A601475F5F4FE881F981BB
:10341000028CF38DE02D00E019E324E130E0B501EA
:10342000CE010995A601465F5F4FE881F981028CC4
:10343000F38DE02D00E01CED24E130E0B501CE017C
:103440000995A601425F5F4FE881F981028CF38DF7
:10345000E02D00E019E324E130E0B501CE0109954B
:10346000A601415F5F4FE881F981028CF38DE02D69
:1034700000E01CED24E130E0B501CE010995B50175
:103480006F5F7F4FE881F981028CF38DE02D23E19E
:1034900030E0A601CE010995E881F981008CF18D1B
:1034A000E02D00E019E324E130E0A601B501CE01F2
:1034B0000995450183E0880E911CE881F981048C0F
:1034C000F58DE02D04E110E024E030E0A601B40128
:1034D000CE010995E881F981028CF38DE02D00E0A1
:1034E0001CED24E030E0A601B401CE010995E8818D
:1034F000F981008CF18DE02D00E019E324E130E04A
:10350000A601B401CE010995B501695F7F4FE8813D
:10351000F981008CF18DE02D00E01CED24E130E01C
:10352000A601CE01099545018CE0880E911CE88129
:10353000F981048CF58DE02D04E110E024E030E009
:10354000A601B401CE010995E881F981028CF38DC1
:10355000E02D00E01CED24E030E0A601B401CE0136
:103560000995E881F981008CF18DE02D00E019E3E7
:1035700024E130E0A601B401CE010995B501605FF8
:103580007F4FE881F981008CF18DE02D00E01CED8A
:1035900024E130E0A601CE010995A6014D5E5F4F02
:1035A000E881F981028CF38DE02D00E019E324E13C
:1035B00030E0B501CE010995DF91CF911F910F91B8
:1035C000FF90EF90DF90CF90BF90AF909F908F9043
:1035D0000895CF92DF92EF92FF920F931F93CF93B4
:1035E000DF937C01CB018A012091B301222389F072
:1035F000EB016B01C40ED51ECC15DD0569F0699198
:10360000D701ED91FC910190F081E02DC701099562
:10361000F3CF642F0E94FD20C801DF91CF911F914D
:103620000F91FF90EF90DF90CF900895CF93DF93AD
:103630001F92CDB7DEB769832091B3012223D1F069
:103640002091D601203240F021E030E0FC013383AC
:10365000228380E090E015C08091B401E82FF0E073
:10366000EB54FE4F998190838F5F8093B4018093D8
:10367000D60105C061E0CE0101960E94FD2081E0E7
:1036800090E00F90DF91CF91089590E0FC01EF5111
:10369000FF4F2491FC01EB50FA4F3491FC01ED5E99
:1036A000F94FE491EE2309F43CC0222339F1233091
:1036B00091F038F42130A9F0223001F584B58F7DE6
:1036C00012C0263091F02730A1F02430B9F4809157
:1036D00080008F7D03C0809180008F778093800071
:1036E0000DC084B58F7784BD09C08091B0008F77FD
:1036F00003C08091B0008F7D8093B000F0E0EE0FAA
:10370000FF1FE75FF94FA591B4919FB7F89461113E
:1037100004C08C913095382302C0EC913E2B3C9331
:103720009FBF0895CF93DF9390E0FC01EB50FA4FD9
:103730002491FC01ED5EF94F8491882361F190E0C2
:10374000880F991FFC01E952FF4FC591D491FC01EC
:10375000E75FF94FA591B491611109C09FB7F89443
:103760008881209582238883EC912E230BC06230C0
:1037700061F49FB7F8948881322F30958323888332
:10378000EC912E2B2C939FBF06C08FB7F894E88145
:103790002E2B28838FBFDF91CF9108951F920F9218
:1037A0000FB60F9211248F938091E5018F5F809364
:1037B000E5018F910F900FBE0F901F90189585ED2A
:1037C0008093BC008091BC0084FDFCCF1092B201BC
:1037D00008950895E0918B0180918A01E81730F4F3
:1037E000F0E0E659FE4F808190E008958FEF9FEF63
:1037F000089590918B0180918A01981750F4E92FD8
:10380000F0E0E659FE4F208130E09F5F90938B01FE
:1038100002C02FEF3FEFC90108958F929F92AF92A0
:10382000BF92CF92DF92EF92FF920F931F93CF93AD
:10383000DF93EC014901BE2CAF2CE881F98106A091
:10384000F7A1E02D09959401D8010E943F2661154A
:1038500071058105910509F481C02DA921110FC0C1
:10386000615071098109910908F478C0AEBC0DB4AA
:1038700007FEFDCFBEBC0DB407FEFDCFF1CF21305A
:1038800009F03FC0615071098109910908F466C0CF
:103890003A2D28E0E9A1FAA1508137FF03C04DA1DC
:1038A000452B02C04EA145234083EBA1FCA15081D2
:1038B0004FA1452B4083EBA1FCA1508148A5452396
:1038C0004083330F215031F73B2D28E0E9A1FAA1C5
:1038D000508137FF03C04DA1452B02C04EA14523A7
:1038E0004083EBA1FCA150814FA1452B4083EBA16C
:1038F000FCA1508148A545234083330F215031F767
:10390000C1CFFE1017C0EF8DF8A1F0826B017C01D2
:10391000CC0CDD1CEE1CFF1CC114D104E104F1042D
:10392000E9F0CE010E94F21581E0C81AD108E10841
:10393000F108F2CF6B017C01EF8DF8A1A082CE01DE
:103940000E94F215EF8DF8A1B082CE010E94F2150F
:1039500021E0C21AD108E108F10871F7DF91CF9197
:103960001F910F91FF90EF90DF90CF90BF90AF909D
:103970009F908F900895FC0185A9811105C06EBDAF
:103980000DB407FEFDCF08958130E1F488E0A1A1D8
:10399000B2A12C9167FF03C095A1922B02C096A102
:1039A00092239C93A3A1B4A12C9197A1922B9C93B9
:1039B000660FA3A1B4A12C9190A592239C93815052
:1039C00031F70895A78DB0A16C93CF010C94F21537
:1039D000CF92DF92EF92FF920F931F93CF93DF93DB
:1039E000EC01162F6A01E22E0E9403178FA987FDB2
:1039F00006C0EB8DFC8D90818AA989238083ED8D93
:103A0000FE8D90818CA989238083612FCE010E9435
:103A1000BB1CED8DFE8D90818BA9892B8083860147
:103A2000F12CC8018C199D098E159F053CF4F801F5
:103A300061918F01CE010E94BB1CF3CF8FA987FD3E
:103A400006C0EB8DFC8D908189A9892B8083DF9145
:103A5000CF911F910F91FF90EF90DF90CF9008953D
:103A6000CF93DF93EC01ED8DFE8D90818CA989239E
:103A70008083CE010E94BB1CED8DFE8D90818BA9B1
:103A8000892B8083DF91CF9108952F923F924F929F
:103A90005F926F927F928F929F92AF92BF92CF92DE
:103AA000DF92EF92FF920F931F93CF93DF93CDB7E7
:103AB000DEB76B970FB6F894DEBF0FBECDBF9B8FFE
:103AC0008A8F1B014A01D22E198708873701A982E4
:103AD000DC0159962D913C915A972115310509F039
:103AE000FFC018968D919C911997681779070CF073
:103AF000E7C11A968D919C911B97481759070CF0B6
:103B0000DFC1EC2DF0E0FB83EA839B0146E0C49E1D
:103B1000200D311D11243D872C87121613060CF041
:103B2000CFC16A2D70E07B876A8783E0660F771FBD
:103B30008A95E1F77F876E87CB01880D991D18164E
:103B400019060CF0BDC158968C91811104C08FEA02
:103B50008D1508F4D394AA8DBB8DED91FC9111972E
:103B60000680F781E02DCD010995B5E0DB9EC0010F
:103B70001124EC2DF0E0F98BE88B91012B5F3F4F86
:103B80003B8B2A8B3D822C822101AC0142195309C7
:103B90005D8B4C8B7981672F70E07F8B6E8BC401BE
:103BA0000896998F888FEC89FD89E40DF51DEB50FF
:103BB000FF4FD49054019F828E82D0FE16C0AA8DF2
:103BC000BB8DED91FC91B1E0CB1209C02981213070
:103BD00031F40084F185E02D2885398519C00284EF
:103BE000F385E02DE884F9841DC048855985461584
:103BF000570519F1AA8DBB8DED91FC91B1E0CB1267
:103C00000DC02981213051F40084F185E02D93010C
:103C1000A501B2018A8D9B8D09950FC00284F385A1
:103C2000E02D73010A851B852A813B814E815F81CE
:103C30006C817D818A8D9B8D0995D6943FEFA31A67
:103C4000B30A4E815F816E897F89460F571F5F835C
:103C50004E83888D998DA816B90609F0AECF9FEFD7
:103C6000491A590AAC81BD81E889F989AE0FBF1F95
:103C7000BD83AC832A893B894216530609F093CF52
:103C8000488559854615570509F4F8C0AA8DBB8D9E
:103C9000ED91FC91B1E0CB1211C02981213071F47A
:103CA000B1016B5F7F4F0484F585E02D830128E02F
:103CB00030E0A4018A8D9B8D0995E0C06C857D85DF
:103CC0004A815B81641B750B0284F385E02D7301CF
:103CD0000E851F859A01A4018A8D9B8D0995CEC002
:103CE000F9013496E491DE1AF901329685919491A6
:103CF000B7E0DB9E800D911D1124F90125913491CF
:103D00003B8B2A8BFC01259134915901FC013296A1
:103D10005490319634913C87329674903196149138
:103D200041E04C1518F05981523068F0672D072C8E
:103D3000000C770B7D836C83812F012E000C990B77
:103D40009B838A8304C01B821A821D821C82AA8DD7
:103D5000BB8DED91FC9111970680F781E02DCD018F
:103D60000995412CD12C612CF981EF2FF0E0FF83D4
:103D7000EE832C2D30E03B872A87A401410F511D93
:103D800017FD5A955F8B4E8BB101670D711D77FC46
:103D90007A95798F688F7C85671608F06FC0262D1D
:103DA00030E04A815B81420F531FAE81BF81A49FE7
:103DB000C001A59F900DB49F900D1124F401E80F50
:103DC000F91FF98BE88B842D712C4E895F89420F86
:103DD000531F5D8B4C8B751408F04DC051E0580F8C
:103DE0005E87877041F4C5010196EA89FB89EA0D77
:103DF000FB1DD4905C01D7FE3AC061E0C61216C02C
:103E00007981713099F4AA8DBB8DED91FC91119758
:103E10000084F185E02D288539854C895D89688D80
:103E2000798D670D711DCD01099521C08C819D8112
:103E3000870D911DEA85FB858E9FB0018F9F700DC8
:103E40009E9F700D1124620D731DAA8DBB8DED9187
:103E5000FC9111970284F385E02DE884F9840E81AA
:103E60001F812A853B8548895989CD010995DD0C3B
:103E700073948E85B0CF450C63948DCFAA8DBB8D86
:103E8000ED91FC9111970288F389E02DCD016B969D
:103E90000FB6F894DEBF0FBECDBFDF91CF911F915B
:103EA0000F91FF90EF90DF90CF90BF90AF909F90D9
:103EB0008F907F906F905F904F903F902F900994DC
:103EC0006B960FB6F894DEBF0FBECDBFDF91CF91DA
:103ED0001F910F91FF90EF90DF90CF90BF90AF9028
:103EE0009F908F907F906F905F904F903F902F901A
:103EF0000895682F87ED91E00C94161B3091D60140
:103F0000313208F047C08091B2018111FCCF90910D
:103F1000D50122E02093B20121E02093B1012FEFDF
:103F20002093B0011092AF013093AE01E5EBF1E0C8
:103F3000AEE8B1E020E0321721F041914D932F5FC0
:103F4000FACF10928D0120918D01990F922B9093B1
:103F50008D0190918C01913041F410928C019091DF
:103F60008D019093BB0095EC01C095EE9093BC0041
:103F70009091B2019230E1F39091B0019F3F79F0BE
:103F80008091B001803241F08091B001803331F0F6
:103F900084E005C081E003C082E001C083E01092AC
:103FA000B4011092D6011092B30108951F920F929E
:103FB0000FB60F9211242F933F934F935F936F93FC
:103FC0007F938F939F93AF93BF93EF93FF938091D2
:103FD000B900887F803609F49CC068F5883209F4FE
:103FE0005BC090F4803109F454C038F4882309F49C
:103FF000EFC0883009F44DC0EFC0883109F44CC0DF
:10400000803209F45DC0E8C0803409F468C048F427
:10401000803309F455C0883309F0DEC08093B001C5
:10402000D1C0803509F44FC0883509F45DC08834AB
:1040300009F0D2C0CFC0883909F4C0C0A8F48837CD
:1040400009F467C038F4883609F463C0803709F48E
:1040500060C0C2C0883809F4B1C0803909F45FC0BB
:10406000803809F0B9C05BC0803B09F481C038F4E6
:10407000803A09F466C0883A09F47AC0ADC0803C41
:1040800009F4A0C0883C09F49DC0883B09F483C0B2
:10409000A3C080918D0110C09091AF018091AE01BD
:1040A000981770F5E091AF0181E08E0F8093AF011A
:1040B000F0E0E257FE4F80818093BB0085EC7FC02B
:1040C0008093B00187C0E091AF0181E08E0F8093B3
:1040D000AF018091BB00F0E0E257FE4F80839091EA
:1040E000AF018091AE0167C0E091AF0181E08E0F1A
:1040F0008093AF018091BB00F0E0E257FE4F8083D8
:104100008091B101811166C081E080938C0184EAC5
:104110005AC083E08093B2011092A604CFCF809161
:10412000A604803208F04AC0E091A60481E08E0F18
:104130008093A6048091BB00F0E0EA57FB4F808398
:10414000BDCF8091A604803230F4E091A604F0E067
:10415000EA57FB4F10820E94DF1B6091A60470E0BB
:1041600086E894E0E0E0F0E009951092A6042AC009
:1041700084E08093B2011092850410928404E0E000
:10418000F0E0099580918404811105C081E080935D
:10419000840410926404E091850481E08E0F809382
:1041A0008504F0E0EC59FB4F80818093BB00909137
:1041B000850480918404981708F480CF85E8809363
:1041C000BC000AC085EC8093BC001092B20104C010
:1041D0001092B0010E94DF1BFF91EF91BF91AF9150
:1041E0009F918F917F916F915F914F913F912F910F
:1041F0000F900FBE0F901F901895613298F4209188
:10420000B201243089F460938404282FA4E6B4E03A
:10421000FC018E2F821B861718F481918D93F9CFA4
:1042200080E0089581E0089582E008958F929F9242
:10423000AF92BF92CF92DF92EF92FF920F931F93B4
:10424000CF93DF93EC018C010E5F1F4F2AE0922E7B
:104250006C0188ECC81A8DEFD80A5E01A6E1AA1A93
:10426000AEEFBA0A78019AE0892ED701ED91FD915F
:104270007D01ED50FF4FEE0FFF1FEC0FFD1F808102
:104280009181F60160817181DC01ED91FC910190D9
:10429000F081E02D282D492D0995F701E051FF4FC0
:1042A00080819181019779F4F50180819181D60116
:1042B0006D917C91DC01ED91FC910190F081E02DFC
:1042C000282D492D0995B4E18B0EE6EE8E12CDCF47
:1042D0000A5E1F4F9B0E9E12C5CFDF91CF911F919B
:1042E0000F91FF90EF90DF90CF90BF90AF909F9095
:1042F0008F90089584B5826084BD85B5826085BD48
:1043000080916E00826080936E008EE487BD789409
:1043100040E050E0BA0181E294E00E94171761E0AA
:1043200081E294E00E94891262E172E181E294E00C
:104330000E94C910CAEED1E08CEF91E0FE0121E0AD
:1043400030E0219331938E179F07D9F7E6EEF1E025
:10435000DF0181E090E057969C938E935697569696
:1043600022E0A83DB207B9F7A6EEB1E081E090E007
:1043700013969C938E931297569632E0A83DB307FE
:10438000B9F7A6ECB2E081E090E08D939D9342E016
:10439000A83DB407D1F781E090E089939993A1E01B
:1043A000CC3FDA07D1F781E090E093AB82AB97ABDB
:1043B00086AB93AF82AF97AF86AFBC96B2E0E639DB
:1043C000FB0799F780E090E04696FC01EA51FE4F2A
:1043D0002AE0448155814230510511F4158214823E
:1043E000215032962111F5CF8C3D910569F7E12CD2
:1043F000C9E0D0E0BBE0DB2E02E010E080912004B9
:10440000E816D0F50E94B525BE010E942B26FF2498
:10441000F394F80E0E94B525BE010E942B26282F8A
:1044200091E0980FE1E0FE1203C0223098F4E6CF4D
:10443000F2E0FF1203C0913069F4E0CF29E0F212FC
:1044400004C08750823030F4D9CF38E0F31202C074
:104450009930A1F2DF9CF0011124E90FF11DEE0F5C
:10446000FF1FE851FE4F808191810197029730F242
:1044700011830083E394C2CF86EE91E00E9416215F
:104480004298439A87B18C6087B94FEF81EE94E0F0
:10449000415080409040E1F700C0000010928B0135
:1044A00010928A011092B4011092D6011092B201BA
:1044B000C1E0C093B10110928C0161E082E10E94E1
:1044C000451B61E083E10E94451B8091B9008E7F0E
:1044D0008093B9008091B9008D7F8093B90088E402
:1044E0008093B80085E48093BC00C093B301D2E50B
:1044F000D093D5011092B4011092D60180EF90E0D4
:104500000E94791F85E590E00E94791F0E947E1F1E
:10451000C093B301D093D5011092B4011092D6018B
:104520008BEF90E00E94791F80E090E00E94791F5D
:104530000E947E1FD1E03BE0F32E77247A9445E081
:10454000A42E55EEB52E65ECE62E72E5D72E01E0D1
:1045500010E027EE822E23E0922ED401ED91FC9103
:104560008381882381F08FE39CE90197F1F700C0F4
:10457000000085819681019696838583853F9140D1
:1045800010F0D4831382F401A081B18114968C9130
:1045900014978823C1F01796EC91179718968C9171
:1045A000FE9EF0011124E80FF11DEE0FFF1FE652F1
:1045B000FD4F1182108286EE91E00E941621D401F7
:1045C000ED91FC911482B2E08B0E911CEFEE8E16F1
:1045D000E3E09E0611F68091B2018111FCCFC093F9
:1045E000B201C093B1017092B0011092AF01A092DC
:1045F000AE01C0938D0180918D01846A80938D01FD
:1046000080918C01813049F410928C0180918D0150
:104610008093BB00E092BC0002C0B092BC008091CD
:10462000B2018130E1F38091AF01863018F49091AE
:10463000AF0101C096E0AEE8B1E0EAE6F1E080E06B
:10464000891721F02D9121938F5FFACF10928B0162
:1046500080938A0184E6882E81E0982EC12C909167
:104660008A0180918B01981759F087ED91E00E94A3
:10467000F91BD4018D934D01C394B6E0CB12EFCF5B
:10468000C093B301D092D5011092B4011092D6011B
:1046900080E090E00E94791F0E947E1FF6E0CF121A
:1046A00058CF8091690190E08095909581FD14C06C
:1046B0008FE39CE90197F1F700C0000020916401AD
:1046C00088EA820F8F3408F046C0809165018955D1
:1046D0008F3408F43ECF3FC0A091E301B091E401D4
:1046E00018968C911897882309F433CF16969C91CD
:1046F00016971596CC90159711966D917C911297FF
:104700009B012F5F3D4FAB01475F5D4F80E0FC9CFD
:10471000F0011124E90FF11DE658FF4FEE0FFF1FC6
:104720002F01460E571E81110EC0F9016081718163
:10473000FB019380911007C0D383C7829087F20159
:104740001183008381E02E5F3F4F2417350759F70F
:1047500018961C92FECE8091E3019091E401FC0139
:104760003081332309F4F5CE30E02F573109293257
:10477000310514F063E004C0283D3F4F24F464E0A9
:104780000E943F03E6CE2091650130E020583109B8
:10479000283DBFEF3B0714F462E0F2CF2932310528
:1047A0000CF4D7CE61E0ECCF8F929F92AF92BF9284
:1047B000CF92DF92EF92FF920F931F93CF93DF93ED
:1047C000E7EDF1E01382128288EE93E0A0E0B0E022
:1047D00084839583A683B78388E091E09183808367
:1047E000A1E2B4E013961C921E92129720EF30E0E3
:1047F00015963C932E93149780E491E017969C9322
:104800008E93169719963C932E9318971B969C930C
:104810008E931A9756961C9256971D961C921E922E
:104820001C971F961C921E921E97BB24B3945596FC
:10483000BC9255975496BC9254978FEF9FEF539626
:104840009C938E93529751969C938E935097579624
:10485000BC92579758961C9258975A961C921E9243
:104860005997D5961C92D597D6968C93D6978AE071
:10487000D7968C93D79789E0D8968C93D897DA9669
:104880001C921E92D997DC961C921E92DB97DD96A5
:104890001C92DD97DE961C92DE97109260041092B7
:1048A0006104109262041092630487EA94E0909687
:1048B0009C938E935F97ECE1F6E0E491F0E0EE0FCD
:1048C000FF1FE75FF94F859194915E969C938E93BD
:1048D0005D97EEEFF5E08491D3968C93D397EDE15D
:1048E000F6E0E491F0E0EE0FFF1FE75FF94F25914E
:1048F00034915C963C932E935B97EFEFF5E0E49157
:10490000D196EC93D197E095D296EC93D297E82F7D
:10491000E095D496EC93D4978CE391E011969C9318
:104920008E9326EE822E21E0922E86E391E0E40122
:10493000998388831092D80380E391E09093D70302
:104940008093D6031092DC039093DB038093DA0309
:104950001092E0033EEDC32E33E0D32E8AE291E0C5
:10496000F60191838083C3EED3E0188241EEE42EFA
:1049700043E0F42E84E291E0F70191838083B882D2
:10498000C6EED3E0188204EE13E08EE191E0F80168
:104990009183808352E0A52EA8821092F103109299
:1049A000F2031092F3031092F5031092F4031092A5
:1049B000FA0368EF73E088E191E0EB019983888363
:1049C0001092FB031092FC031092FE031092FD0361
:1049D0001092030441E054E0FA0191838083109225
:1049E0000404109205041092070410920604109219
:1049F0000C042AE034E0E9019983888310920D04C5
:104A000010920E041092100410920F0410921504CC
:104A1000C3E1D4E09983888310921604109217049E
:104A2000109219041092180487E180932004B09327
:104A30001F04A0931E04D092CD03C092CC03F09229
:104A4000CF03E092CE031093D1030093D00385EE01
:104A500091E090931D0480931C04AFEEB3E0B093FB
:104A6000E803A093E7037093EA036093E90350938C
:104A7000EC034093EB033093EE032093ED03CD93CF
:104A8000DC93A8EAB4E0BC921896BC9218971296F0
:104A90009C928E9211971596AC9215971696AC92A1
:104AA00016971796BC921797B093E401A093E30171
:104AB000E1EBF4E0B082B086DF91CF911F910F91CE
:104AC000FF90EF90DF90CF90BF90AF909F908F902E
:104AD00008958F929F92AF92BF92CF92DF92EF9202
:104AE000FF92CF93DF93EC01688179818A819B816A
:104AF000611571058105910521F464E279ED8BE57D
:104B000097E02DE133EF41E050E00E94C8254901D4
:104B10005A019B01AC01A7EAB1E40E94E7256B01B1
:104B20007C01ACEEB4EFA50194010E94F525DC01F7
:104B3000CB018C0D9D1DAE1DBF1DB7FF03C001979E
:104B4000A109B04888839983AA83BB839F77DF91AB
:104B5000CF91FF90EF90DF90CF90BF90AF909F905C
:104B60008F9008950E946925089580E091E00E9449
:104B700069250895A0E0B0E08093000190930101C1
:104B8000A0930201B09303010895F8940C94682651
:104B9000052E97FB1EF400940E94DF2557FD07D0D9
:104BA0000E94FA2507FC03D04EF40C94DF255095A3
:104BB0004095309521953F4F4F4F5F4F0895909509
:104BC0008095709561957F4F8F4F9F4F08950E94FC
:104BD0001C26A59F900DB49F900DA49F800D911D44
:104BE00011240895B7FF0C94E7250E94E725821B46
:104BF000930B0895A1E21A2EAA1BBB1BFD010DC049
:104C0000AA1FBB1FEE1FFF1FA217B307E407F5077C
:104C100020F0A21BB30BE40BF50B661F771F881F58
:104C2000991F1A9469F760957095809590959B01EE
:104C3000AC01BD01CF010895A29FB001B39FC00197
:104C4000A39F700D811D1124911DB29F700D811DB8
:104C50001124911D089597FB072E16F4009407D098
:104C600077FD09D00E944E2607FC05D03EF49095B2
:104C700081959F4F0895709561957F4F08950E948B
:104C80001C26332312F48A1B9B0B0C9449260E948A
:104C90001C26B7FF0895821B930B0895AA1BBB1B0C
:104CA00051E107C0AA1FBB1FA617B70710F0A61B2C
:104CB000B70B881F991F5A95A9F780959095BC014D
:104CC000CD010895EE0FFF1F0590F491E02D09949A
:044CD000F894FFCF86
:104CD4000100000000000000161BE91A6318F91B0C
:104CE400EA1BE91B00000000E50F00000000A61904
:104CF40000000000100F00000000941800000000E5
:104D0400B11800000000E60F00000000BA126B1892
:104D140081165218D116871502154515CC117E122D
:104D24008912E70F921304147614C9105C10FD0F56
:044D340017174616F1
:00000001FF
